:100000006930840071300A128A110B200A128A1199
:100010000A128A11132864008001840A0406031955
:10002000003404060C280310831603130030031851
:1000300001308600031000300318013088000A12D6
:100040008A11C3220A128A110A128A11B6230A12CD
:100050008A11F930F1006400F10B2B282F2864007D
:100060000310003003180130F0003030F10083122B
:1000700003137108EA002230F1007108E9000A1246
:100080008A1156230A128A111430F10083120313C5
:100090007108EB000A128A1136230A128A111230F3
:1000A000F100831203137108EF000A128A1116235C
:1000B0000A128A111330F100831203137108EE0043
:1000C0000A128A11F6220A128A110430F1008312F0
:1000D00003137108EC000A128A11D7220A128A113E
:1000E0000A128A118B250A128A11701C7828792825
:1000F0007F280A128A113B260A128A1184280A12C2
:100100008A11F3260A128A1170280A128A1100280D
:1004D6008316031391146F2A83128C1D732A742AB0
:1004E6006F2A8C11762A08008316031311157B2AAE
:1004F60083128C1D7F2A802A7B2A8C11822A08006F
:10050600831603131114872A83128C1D8B2A8C2AB7
:10051600872A8C118E2A080083160313911611164A
:10052600942A83128C1D982A992A942A8C119B2A24
:100536000800F6007608831203139300A22A8C1D86
:10054600A52AA62AA22A8C11A82A08008316031314
:1005560091121116AE2A83128C1DB22AB32AAE2A24
:100566008C11B52A0800831603139115BA2A831233
:100576008C1DBE2ABF2ABA2A8C111308C22A08006B
:1005860003100030031801309100831203138C11FD
:1005960009308316031393008030940028308312A9
:1005A60003139400D62A08000A128A1183220A121B
:1005B6008A11D0300A128A119C220A128A1103303B
:1005C6000A128A119C220A128A11831203136C08DA
:1005D6000A128A119C220A128A110A128A11772299
:1005E6000A128A1108000A128A1183220A128A1133
:1005F600D0300A128A119C220A128A1106300A1277
:100606008A119C220A128A11831203136E080A1297
:100616008A119C220A128A110A128A1177220A1258
:100626008A11152B08000A128A1183220A128A11CE
:10063600D0300A128A119C220A128A1105300A1237
:100646008A119C220A128A11831203136F080A1256
:100656008A119C220A128A110A128A1177220A1218
:100666008A11352B08000A128A1183220A128A116E
:10067600D0300A128A119C220A128A1104300A12F8
:100686008A119C220A128A11831203136B080A121A
:100696008A119C220A128A110A128A1177220A12D8
:1006A6008A11552B08000A128A1183220A128A110E
:1006B600D0300A128A119C220A128A1100300A12BC
:1006C6008A119C220A128A1170080A128A119C2227
:1006D6000A128A11831203136A080A128A119C22CB
:1006E6000A128A118312031369080A128A119C22BC
:1006F6000A128A110A128A1177220A128A11832B88
:1007060008000A128A1183220A128A11D0300A12AC
:100716008A119C220A128A1103300A128A119C221B
:100726000A128A110A128A116B220A128A11D13010
:100736000A128A119C220A128A110A128A11B622F8
:100746000A128A11F200831203137208EC000A12CD
:100756008A118F220A128A110A128A1177220A1224
:100766008A11B52B08008312031306120430F20017
:10077600F20BBB2BBE2B03300A128A1132240A124B
:100786008A1103300A128A1132240A128A1103309E
:100796000A128A1132240A128A1102300A128A11A6
:1007A60032240A128A1128300A128A1132240A12B5
:1007B6008A110C300A128A1132240A128A11063062
:1007C6000A128A1132240A128A11E92B0800F5004E
:1007D6008312031306127508F6007608ED0064000E
:1007E600831203138614061164008312031306167C
:1007F6006400F030F600831203137608ED050F301F
:10080600F600760888056D08F60076088804640008
:1008160083120313061264007508F600831203138D
:100826007608ED0064008312031306166400831233
:100836000313ED0EF030ED05F030F6007608ED0509
:100846000F30F600760888056D08F60076088804ED
:100856006400831203130612302C312C0800F500B5
:100866008312031306127508F6007608ED0064007D
:1008760083120313861006116400831203130616EF
:100886006400F030F600831203137608ED050F308E
:10089600F600760888056D08F60076088804640078
:1008A60083120313061264007508F60083120313FD
:1008B6007608ED00640083120313061664008312A3
:1008C6000313ED0EF030ED05F030F6007608ED0579
:1008D6000F30F600760888056D08F600760888045D
:1008E6006400831203130612782C792C08000A126E
:1008F6008A1183220A128A11D0300A128A119C2286
:100906000A128A1100300A128A119C220A128A11CE
:100916000A128A116B220A128A11D1300A128A111E
:100926009C220A128A110A128A11B6220A128A1106
:10093600F5007508F0000A128A11A9220A128A1116
:100946000A128A11B6220A128A11F50083120313BB
:100956007508EA000A128A11A9220A128A110A12D5
:100966008A11B6220A128A11F5008312031375083A
:10097600E9000A128A118F220A128A110A128A11B2
:1009860077220A128A1108000A128A1183220A1291
:100996008A11D0300A128A119C220A128A11043056
:1009A6000A128A119C220A128A110A128A116B22D1
:1009B6000A128A11D1300A128A119C220A128A114D
:1009C6000A128A11B6220A128A11F500831203133B
:1009D6007508EB000A128A11A9220A128A110A1254
:1009E6008A11B6220A128A11F500831203137508BA
:1009F600EF000A128A11A9220A128A110A128A1112
:100A0600B6220A128A11F500831203137508EE0046
:100A16000A128A118F220A128A110A128A11772261
:100A26000A128A11162D080003100030031801302F
:100A3600F900F81F1F2D202D282DF709F809F70AB0
:100A46000319F80AF9010314F90DF61F2B2D2C2DA5
:100A5600352DF509F609F50A0319F60A0130FD00E8
:100A66007D08F9060030FB000030FC0078087704AA
:100A760003193E2D3F2D7A2DFA010314FA0D4E2D42
:100A860001300310F70DF80DFF3E031D442D013014
:100A9600FD007D08FA07F81F512D522D432D013018
:100AA6000310FB0DFC0DFF3E031D532D7808760247
:100AB600031D5F2D77087502031C622D632D6D2DB6
:100AC6007708F5027808031CF603F6020130FB04EA
:100AD6000030FC0401300310F80CF70CFF3E031D38
:100AE6006E2D0130FA02031D792D7A2D522DF9084B
:100AF600031D7E2D832DFB09FC09FB0A0319FC0A45
:100B06007C08F601F6077B08F501F5078A2D080033
:100B16000A128A117A240A128A1183300A128A1159
:100B260032240A128A111030F7000030F8008312BE
:100B360003136908F200F3017208F5007308F60062
:100B46000A128A1117250A128A117508F4008312EF
:100B560003137408ED003030F2007208ED076D08DB
:100B66000A128A11EA230A128A11831203136908E8
:100B76000F39F2007208ED003030F2007208ED070E
:100B86006D080A128A11EA230A128A113A300A12E9
:100B96008A11EA230A128A111030F7000030F80091
:100BA600831203136A08F200F3017208F500730852
:100BB600F6000A128A1117250A128A117508F4001E
:100BC600831203137408ED003030F2007208ED074B
:100BD6006D080A128A11EA230A128A118312031374
:100BE6006A080F39F2007208ED003030F200720820
:100BF600ED076D080A128A11EA230A128A113A30A1
:100C06000A128A11EA230A128A111030F7000030FC
:100C1600F8007008F200F3017208F5007308F60098
:100C26000A128A1117250A128A117508F40083120E
:100C360003137408ED003030F2007208ED076D08FA
:100C46000A128A11EA230A128A1170080F39F20071
:100C5600831203137208ED003030F2007208ED07BC
:100C66006D080A128A11EA230A128A113A2E08001E
:100C76000A128A11C7240A128A11C3300A128A116B
:100C860032240A128A111030F7000030F80083125D
:100C960003136B08F200F3017208F5007308F600FF
:100CA6000A128A1117250A128A117508F40083128E
:100CB60003137408ED003030F2007208ED076D087A
:100CC6000A128A11EA230A128A11831203136B0885
:100CD6000F39F2007208ED003030F2007208ED07AD
:100CE6006D080A128A11EA230A128A112F300A1293
:100CF6008A11EA230A128A111030F7000030F80030
:100D0600831203136F08F200F3017208F5007308EB
:100D1600F6000A128A1117250A128A117508F400BC
:100D2600831203137408ED003030F2007208ED07E9
:100D36006D080A128A11EA230A128A118312031312
:100D46006F080F39F2007208ED003030F2007208B9
:100D5600ED076D080A128A11EA230A128A112F304A
:100D66000A128A11EA230A128A111030F70000309B
:100D7600F800831203136E08F200F3017208F500FF
:100D86007308F6000A128A1117250A128A117508C5
:100D9600F400831203137408ED003030F200720879
:100DA600ED076D080A128A11EA230A128A118312C4
:100DB60003136E080F39F2007208ED003030F200AE
:100DC6007208ED076D080A128A11EA230A128A11BF
:100DD60020300A128A11EA230A128A11F22E08001A
:100DE6000A128A1184230A128A11C3300A128A113E
:100DF60032240A128A11CD2F20300A128A11EA23D0
:100E06000A128A1153300A128A11EA230A128A1127
:100E160075300A128A11EA230A128A116E300A12F2
:100E26008A11EA230A128A11E62F20300A128A1141
:100E3600EA230A128A114D300A128A11EA230A128B
:100E46008A116F300A128A11EA230A128A116E3049
:100E56000A128A11EA230A128A11E62F54300A125C
:100E66008A11EA230A128A1175300A128A11EA23B4
:100E76000A128A1165300A128A11EA230A128A11A5
:100E860073300A128A11EA230A128A11E62F5730A2
:100E96000A128A11EA230A128A1165300A128A1185
:100EA600EA230A128A1164300A128A11EA230A1204
:100EB6008A116E300A128A11EA230A128A116530E3
:100EC6000A128A11EA230A128A1173300A128A1147
:100ED600EA230A128A11E62F54300A128A11EA23EB
:100EE6000A128A1168300A128A11EA230A128A1132
:100EF60075300A128A11EA230A128A1172300A120E
:100F06008A11EA230A128A1173300A128A11EA2315
:100F16000A128A11E62F20300A128A11EA230A12CF
:100F26008A1146300A128A11EA230A128A1172308D
:100F36000A128A11EA230A128A1169300A128A11E0
:100F4600EA230A128A11E62FC2300A128A113224C3
:100F56000A128A1153300A128A11EA230A128A11D6
:100F660061300A128A11EA230A128A1174300A12AF
:100F76008A11EA230A128A1175300A128A11EA23A3
:100F86000A128A1172300A128A11EA230A128A1187
:100F9600E62FE62F831203136C08013A0319FF2E7E
:100FA600033A0319182F013A0319312F073A031987
:100FB6004A2F013A03196F2F033A03198E2F013A6C
:100FC6000319A72FCC2F64300A128A11EA230A12BA
:100FD6008A1161300A128A11EA230A128A117930BB
:100FE6000A128A11EA230A128A1120300A128A1179
:0A0FF600EA230A128A11FF2F0800F7
:02400E003A3F37
:00000001FF
